:020000040000FA
:10000000202027200030090603191320013009069B
:100010000319A520023009060319B9200330090687
:1000200003195520022800308700880008000F308F
:1000300087000800F03087000800FF3087000800C4
:1000400083160313F1308F308312031308008316D5
:100050000313FF3085008600870188010F30890077
:100060000317880189018312031308001430A000CC
:100070000830A1001330A200A20B3C28A10B3A28A3
:10008000A00B382808000A30A4003620A40B45280D
:1000900008001430A4003620A40B4B28080064305C
:1000A000A4003620A40B512808000230A800A501A6
:1000B0000230A7000B30A6007020A50A0608A90090
:1000C00036206B28A90B6028A60B5C28A70B5A28A2
:1000D000A80B5728080003300906031D08006228F2
:1000E00025087720870025088E20880008008207D1
:1000F0007F34FE34FC34F834F034E034F034F83437
:10010000FC34FE347F340134023404340834903437
:1001100060349034083404340234013482070034EB
:1001200000340134033407340F340734033401340A
:100130000034003408340434023401340034003410
:100140000034013402340434083403101030AA009F
:1001500000308700803088000608A9003620CD20B6
:10016000AB1C0800A90BAE28880C870CAA0BAC2886
:10017000080003101030AA0001308700003088000A
:100180000608A9003620CD202B1D0800A90BC22887
:10019000870D880DAA0BC0280800AB0100300906A6
:1001A00003192B14013009060319AB140230090698
:0E01B00003192B15033009060319AB150800BF
:0201BE0000340B
:0201C000003409
:02400E00F42399
:02401000FF3E71
:00000001FF
