:020000040000FA
:100000001F2026200030090603191320013009069D
:1000100003194E200230090603191920033009067E
:1000200003191C2002280130870008000F308700C8
:100030000800F03087000800FF30870008008316B2
:100040000313F1308F308312031308008316031358
:10005000FF3085008600870188010F308900031773
:10006000880189018312031308001430A0000830AE
:10007000A1001330A200A20B3B28A10B3928A00B32
:10008000372808001430A4003520A40B44280800A9
:100090006430A4003520A40B4A2808000230A800D0
:1000A000A5010230A7000B30A6005F20A50A48205A
:1000B000A60B5528A70B5328A80B50280800250885
:1000C0006620870025087D208800080082077F348D
:1000D000FE34FC34F834F034E034F034F834FC34DA
:1000E000FE347F34013402340434083490346034F4
:1000F000903408340434023401348207003400346C
:100100000134033407340F3407340334013400342A
:100110000034083404340234013400340034003430
:080120000134023404340834F8
:04012800003400346B
:02400E00F42399
:02401000FF3E71
:00000001FF
